# даные из tcpdump
tcpdump: listening on lo, link-type EN10MB (Ethernet), capture size 262144 bytes
00:45:20.409698 IP (tos 0x0, ttl 64, id 11111, offset 0, flags [none], proto UDP (17), length 128)
    localhost.8081 > localhost.8082: [no cksum] UDP, length 100
        0x0000:  0000 0000 0000 0000 0000 0000 0800 4500  ..............E.
        0x0010:  0080 2b67 0000 4011 5104 7f00 0001 7f00  ..+g..@.Q.......
        0x0020:  0001 1f91 1f92 006c 0000 4865 6c6c 6f20  .......l..Hello.
        0x0030:  636c 6965 6e74 2100 0000 0000 0000 0000  client!.........
        0x0040:  0000 0000 0000 0000 0000 0000 0000 0000  ................
        0x0050:  0000 0000 0000 0000 0000 0000 0000 0000  ................
        0x0060:  0000 0000 0000 0000 0000 0000 0000 0000  ................
        0x0070:  0000 0000 0000 0000 0000 0000 0000 0000  ................
        0x0080:  0000 0000 0000 0000 0000 0000 0000       ..............
